{
  "_format": "hh-sol-artifact-1",
  "contractName": "PingToken",
  "sourceName": "contracts/PingToken.sol",
  "abi": [
    {
      "inputs": [],
      "stateMutability": "nonpayable",
      "type": "constructor"
    },
    {
      "anonymous": false,
      "inputs": [
        {
          "indexed": true,
          "internalType": "address",
          "name": "owner",
          "type": "address"
        },
        {
          "indexed": true,
          "internalType": "address",
          "name": "spender",
          "type": "address"
        },
        {
          "indexed": false,
          "internalType": "uint256",
          "name": "value",
          "type": "uint256"
        }
      ],
      "name": "Approval",
      "type": "event"
    },
    {
      "anonymous": false,
      "inputs": [
        {
          "indexed": true,
          "internalType": "address",
          "name": "previousOwner",
          "type": "address"
        },
        {
          "indexed": true,
          "internalType": "address",
          "name": "newOwner",
          "type": "address"
        }
      ],
      "name": "OwnershipTransferred",
      "type": "event"
    },
    {
      "anonymous": false,
      "inputs": [
        {
          "indexed": true,
          "internalType": "address",
          "name": "from",
          "type": "address"
        },
        {
          "indexed": true,
          "internalType": "address",
          "name": "to",
          "type": "address"
        },
        {
          "indexed": false,
          "internalType": "uint256",
          "name": "value",
          "type": "uint256"
        }
      ],
      "name": "Transfer",
      "type": "event"
    },
    {
      "inputs": [
        {
          "internalType": "address",
          "name": "owner",
          "type": "address"
        },
        {
          "internalType": "address",
          "name": "spender",
          "type": "address"
        }
      ],
      "name": "allowance",
      "outputs": [
        {
          "internalType": "uint256",
          "name": "",
          "type": "uint256"
        }
      ],
      "stateMutability": "view",
      "type": "function"
    },
    {
      "inputs": [
        {
          "internalType": "address",
          "name": "spender",
          "type": "address"
        },
        {
          "internalType": "uint256",
          "name": "amount",
          "type": "uint256"
        }
      ],
      "name": "approve",
      "outputs": [
        {
          "internalType": "bool",
          "name": "",
          "type": "bool"
        }
      ],
      "stateMutability": "nonpayable",
      "type": "function"
    },
    {
      "inputs": [
        {
          "internalType": "address",
          "name": "account",
          "type": "address"
        }
      ],
      "name": "balanceOf",
      "outputs": [
        {
          "internalType": "uint256",
          "name": "",
          "type": "uint256"
        }
      ],
      "stateMutability": "view",
      "type": "function"
    },
    {
      "inputs": [],
      "name": "buyToken",
      "outputs": [
        {
          "internalType": "bool",
          "name": "",
          "type": "bool"
        }
      ],
      "stateMutability": "payable",
      "type": "function"
    },
    {
      "inputs": [],
      "name": "decimals",
      "outputs": [
        {
          "internalType": "uint8",
          "name": "",
          "type": "uint8"
        }
      ],
      "stateMutability": "view",
      "type": "function"
    },
    {
      "inputs": [
        {
          "internalType": "address",
          "name": "spender",
          "type": "address"
        },
        {
          "internalType": "uint256",
          "name": "subtractedValue",
          "type": "uint256"
        }
      ],
      "name": "decreaseAllowance",
      "outputs": [
        {
          "internalType": "bool",
          "name": "",
          "type": "bool"
        }
      ],
      "stateMutability": "nonpayable",
      "type": "function"
    },
    {
      "inputs": [],
      "name": "getTotalSupply",
      "outputs": [
        {
          "internalType": "uint256",
          "name": "",
          "type": "uint256"
        }
      ],
      "stateMutability": "view",
      "type": "function"
    },
    {
      "inputs": [
        {
          "internalType": "address",
          "name": "spender",
          "type": "address"
        },
        {
          "internalType": "uint256",
          "name": "addedValue",
          "type": "uint256"
        }
      ],
      "name": "increaseAllowance",
      "outputs": [
        {
          "internalType": "bool",
          "name": "",
          "type": "bool"
        }
      ],
      "stateMutability": "nonpayable",
      "type": "function"
    },
    {
      "inputs": [
        {
          "internalType": "uint256",
          "name": "amount",
          "type": "uint256"
        }
      ],
      "name": "incrementTotalSupply",
      "outputs": [
        {
          "internalType": "uint256",
          "name": "",
          "type": "uint256"
        }
      ],
      "stateMutability": "view",
      "type": "function"
    },
    {
      "inputs": [],
      "name": "name",
      "outputs": [
        {
          "internalType": "string",
          "name": "",
          "type": "string"
        }
      ],
      "stateMutability": "view",
      "type": "function"
    },
    {
      "inputs": [],
      "name": "owner",
      "outputs": [
        {
          "internalType": "address",
          "name": "",
          "type": "address"
        }
      ],
      "stateMutability": "view",
      "type": "function"
    },
    {
      "inputs": [],
      "name": "renounceOwnership",
      "outputs": [],
      "stateMutability": "nonpayable",
      "type": "function"
    },
    {
      "inputs": [],
      "name": "symbol",
      "outputs": [
        {
          "internalType": "string",
          "name": "",
          "type": "string"
        }
      ],
      "stateMutability": "view",
      "type": "function"
    },
    {
      "inputs": [],
      "name": "tokensPerEth",
      "outputs": [
        {
          "internalType": "uint256",
          "name": "",
          "type": "uint256"
        }
      ],
      "stateMutability": "view",
      "type": "function"
    },
    {
      "inputs": [],
      "name": "totalSupply",
      "outputs": [
        {
          "internalType": "uint256",
          "name": "",
          "type": "uint256"
        }
      ],
      "stateMutability": "view",
      "type": "function"
    },
    {
      "inputs": [
        {
          "internalType": "address",
          "name": "to",
          "type": "address"
        },
        {
          "internalType": "uint256",
          "name": "amount",
          "type": "uint256"
        }
      ],
      "name": "transfer",
      "outputs": [
        {
          "internalType": "bool",
          "name": "",
          "type": "bool"
        }
      ],
      "stateMutability": "nonpayable",
      "type": "function"
    },
    {
      "inputs": [
        {
          "internalType": "address",
          "name": "from",
          "type": "address"
        },
        {
          "internalType": "address",
          "name": "to",
          "type": "address"
        },
        {
          "internalType": "uint256",
          "name": "amount",
          "type": "uint256"
        }
      ],
      "name": "transferFrom",
      "outputs": [
        {
          "internalType": "bool",
          "name": "",
          "type": "bool"
        }
      ],
      "stateMutability": "nonpayable",
      "type": "function"
    },
    {
      "inputs": [
        {
          "internalType": "address",
          "name": "newOwner",
          "type": "address"
        }
      ],
      "name": "transferOwnership",
      "outputs": [],
      "stateMutability": "nonpayable",
      "type": "function"
    },
    {
      "inputs": [],
      "name": "withdraw",
      "outputs": [],
      "stateMutability": "nonpayable",
      "type": "function"
    }
  ],
  "bytecode": "0x60806040526103e86006553480156200001757600080fd5b506040518060400160405280600981526020017f50696e67546f6b656e00000000000000000000000000000000000000000000008152506040518060400160405280600381526020017f504754000000000000000000000000000000000000000000000000000000000081525081600390805190602001906200009c9291906200037d565b508060049080519060200190620000b59291906200037d565b505050620000d8620000cc6200012360201b60201c565b6200012b60201b60201c565b6000620000ea620001f160201b60201c565b600a620000f891906200056d565b620f4240620001089190620006aa565b90506200011c3382620001fa60201b60201c565b50620007ec565b600033905090565b6000600560009054906101000a900473ffffffffffffffffffffffffffffffffffffffff16905081600560006101000a81548173ffffffffffffffffffffffffffffffffffffffff021916908373ffffffffffffffffffffffffffffffffffffffff1602179055508173ffffffffffffffffffffffffffffffffffffffff168173ffffffffffffffffffffffffffffffffffffffff167f8be0079c531659141344cd1fd0a4f28419497f9722a3daafe3b4186f6b6457e060405160405180910390a35050565b60006012905090565b600073ffffffffffffffffffffffffffffffffffffffff168273ffffffffffffffffffffffffffffffffffffffff1614156200026d576040517f08c379a0000000000000000000000000000000000000000000000000000000008152600401620002649062000465565b60405180910390fd5b62000281600083836200037360201b60201c565b8060026000828254620002959190620004b5565b92505081905550806000808473ffffffffffffffffffffffffffffffffffffffff1673ffffffffffffffffffffffffffffffffffffffff1681526020019081526020016000206000828254620002ec9190620004b5565b925050819055508173ffffffffffffffffffffffffffffffffffffffff16600073ffffffffffffffffffffffffffffffffffffffff167fddf252ad1be2c89b69c2b068fc378daa952ba7f163c4a11628f55a4df523b3ef8360405162000353919062000487565b60405180910390a36200036f600083836200037860201b60201c565b5050565b505050565b505050565b8280546200038b9062000722565b90600052602060002090601f016020900481019282620003af5760008555620003fb565b82601f10620003ca57805160ff1916838001178555620003fb565b82800160010185558215620003fb579182015b82811115620003fa578251825591602001919060010190620003dd565b5b5090506200040a91906200040e565b5090565b5b80821115620004295760008160009055506001016200040f565b5090565b60006200043c601f83620004a4565b91506200044982620007c3565b602082019050919050565b6200045f816200070b565b82525050565b6000602082019050818103600083015262000480816200042d565b9050919050565b60006020820190506200049e600083018462000454565b92915050565b600082825260208201905092915050565b6000620004c2826200070b565b9150620004cf836200070b565b9250827fffffffffffffffffffffffffffffffffffffffffffffffffffffffffffffffff0382111562000507576200050662000758565b5b828201905092915050565b6000808291508390505b600185111562000564578086048111156200053c576200053b62000758565b5b60018516156200054c5780820291505b80810290506200055c85620007b6565b94506200051c565b94509492505050565b60006200057a826200070b565b9150620005878362000715565b9250620005b67fffffffffffffffffffffffffffffffffffffffffffffffffffffffffffffffff8484620005be565b905092915050565b600082620005d05760019050620006a3565b81620005e05760009050620006a3565b8160018114620005f9576002811462000604576200063a565b6001915050620006a3565b60ff84111562000619576200061862000758565b5b8360020a91508482111562000633576200063262000758565b5b50620006a3565b5060208310610133831016604e8410600b8410161715620006745782820a9050838111156200066e576200066d62000758565b5b620006a3565b62000683848484600162000512565b925090508184048111156200069d576200069c62000758565b5b81810290505b9392505050565b6000620006b7826200070b565b9150620006c4836200070b565b9250817fffffffffffffffffffffffffffffffffffffffffffffffffffffffffffffffff04831182151516156200070057620006ff62000758565b5b828202905092915050565b6000819050919050565b600060ff82169050919050565b600060028204905060018216806200073b57607f821691505b6020821081141562000752576200075162000787565b5b50919050565b7f4e487b7100000000000000000000000000000000000000000000000000000000600052601160045260246000fd5b7f4e487b7100000000000000000000000000000000000000000000000000000000600052602260045260246000fd5b60008160011c9050919050565b7f45524332303a206d696e7420746f20746865207a65726f206164647265737300600082015250565b611fa480620007fc6000396000f3fe6080604052600436106101145760003560e01c80638da5cb5b116100a0578063c4e41b2211610064578063c4e41b22146103aa578063cbdd69b5146103d5578063d5dbe63414610400578063dd62ed3e1461043d578063f2fde38b1461047a57610114565b80638da5cb5b146102bc57806395d89b41146102e7578063a457c2d714610312578063a48217191461034f578063a9059cbb1461036d57610114565b8063313ce567116100e7578063313ce567146101e957806339509351146102145780633ccfd60b1461025157806370a0823114610268578063715018a6146102a557610114565b806306fdde0314610119578063095ea7b31461014457806318160ddd1461018157806323b872dd146101ac575b600080fd5b34801561012557600080fd5b5061012e6104a3565b60405161013b919061176b565b60405180910390f35b34801561015057600080fd5b5061016b60048036038101906101669190611439565b610535565b6040516101789190611750565b60405180910390f35b34801561018d57600080fd5b50610196610558565b6040516101a3919061194d565b60405180910390f35b3480156101b857600080fd5b506101d360048036038101906101ce91906113ea565b610562565b6040516101e09190611750565b60405180910390f35b3480156101f557600080fd5b506101fe610591565b60405161020b9190611968565b60405180910390f35b34801561022057600080fd5b5061023b60048036038101906102369190611439565b61059a565b6040516102489190611750565b60405180910390f35b34801561025d57600080fd5b50610266610644565b005b34801561027457600080fd5b5061028f600480360381019061028a9190611385565b6107b8565b60405161029c919061194d565b60405180910390f35b3480156102b157600080fd5b506102ba610800565b005b3480156102c857600080fd5b506102d1610888565b6040516102de9190611735565b60405180910390f35b3480156102f357600080fd5b506102fc6108b2565b604051610309919061176b565b60405180910390f35b34801561031e57600080fd5b5061033960048036038101906103349190611439565b610944565b6040516103469190611750565b60405180910390f35b610357610a2e565b6040516103649190611750565b60405180910390f35b34801561037957600080fd5b50610394600480360381019061038f9190611439565b610b32565b6040516103a19190611750565b60405180910390f35b3480156103b657600080fd5b506103bf610b55565b6040516103cc919061194d565b60405180910390f35b3480156103e157600080fd5b506103ea610b64565b6040516103f7919061194d565b60405180910390f35b34801561040c57600080fd5b5061042760048036038101906104229190611475565b610b6a565b604051610434919061194d565b60405180910390f35b34801561044957600080fd5b50610464600480360381019061045f91906113ae565b610c00565b604051610471919061194d565b60405180910390f35b34801561048657600080fd5b506104a1600480360381019061049c9190611385565b610c87565b005b6060600380546104b290611ae2565b80601f01602080910402602001604051908101604052809291908181526020018280546104de90611ae2565b801561052b5780601f106105005761010080835404028352916020019161052b565b820191906000526020600020905b81548152906001019060200180831161050e57829003601f168201915b5050505050905090565b600080610540610d7f565b905061054d818585610d87565b600191505092915050565b6000600254905090565b60008061056d610d7f565b905061057a858285610f52565b610585858585610fde565b60019150509392505050565b60006012905090565b6000806105a5610d7f565b9050610639818585600160008673ffffffffffffffffffffffffffffffffffffffff1673ffffffffffffffffffffffffffffffffffffffff16815260200190815260200160002060008973ffffffffffffffffffffffffffffffffffffffff1673ffffffffffffffffffffffffffffffffffffffff1681526020019081526020016000205461063491906119aa565b610d87565b600191505092915050565b61064c610d7f565b73ffffffffffffffffffffffffffffffffffffffff1661066a610888565b73ffffffffffffffffffffffffffffffffffffffff16146106c0576040517f08c379a00000000000000000000000000000000000000000000000000000000081526004016106b79061186d565b60405180910390fd5b600047905060008111610708576040517f08c379a00000000000000000000000000000000000000000000000000000000081526004016106ff906118ed565b60405180910390fd5b60003373ffffffffffffffffffffffffffffffffffffffff164760405161072e90611720565b60006040518083038185875af1925050503d806000811461076b576040519150601f19603f3d011682016040523d82523d6000602084013e610770565b606091505b50509050806107b4576040517f08c379a00000000000000000000000000000000000000000000000000000000081526004016107ab906118ad565b60405180910390fd5b5050565b60008060008373ffffffffffffffffffffffffffffffffffffffff1673ffffffffffffffffffffffffffffffffffffffff168152602001908152602001600020549050919050565b610808610d7f565b73ffffffffffffffffffffffffffffffffffffffff16610826610888565b73ffffffffffffffffffffffffffffffffffffffff161461087c576040517f08c379a00000000000000000000000000000000000000000000000000000000081526004016108739061186d565b60405180910390fd5b610886600061125f565b565b6000600560009054906101000a900473ffffffffffffffffffffffffffffffffffffffff16905090565b6060600480546108c190611ae2565b80601f01602080910402602001604051908101604052809291908181526020018280546108ed90611ae2565b801561093a5780601f1061090f5761010080835404028352916020019161093a565b820191906000526020600020905b81548152906001019060200180831161091d57829003601f168201915b5050505050905090565b60008061094f610d7f565b90506000600160008373ffffffffffffffffffffffffffffffffffffffff1673ffffffffffffffffffffffffffffffffffffffff16815260200190815260200160002060008673ffffffffffffffffffffffffffffffffffffffff1673ffffffffffffffffffffffffffffffffffffffff16815260200190815260200160002054905083811015610a15576040517f08c379a0000000000000000000000000000000000000000000000000000000008152600401610a0c9061192d565b60405180910390fd5b610a228286868403610d87565b60019250505092915050565b6000803411610a72576040517f08c379a0000000000000000000000000000000000000000000000000000000008152600401610a69906117ed565b60405180910390fd5b6000610a893460065461132590919063ffffffff16565b90506000610a96306107b8565b905081811015610adb576040517f08c379a0000000000000000000000000000000000000000000000000000000008152600401610ad29061184d565b60405180910390fd5b6000610ae73384610b32565b905080610b29576040517f08c379a0000000000000000000000000000000000000000000000000000000008152600401610b209061190d565b60405180910390fd5b80935050505090565b600080610b3d610d7f565b9050610b4a818585610fde565b600191505092915050565b6000610b5f610558565b905090565b60065481565b6000610b74610d7f565b73ffffffffffffffffffffffffffffffffffffffff16610b92610888565b73ffffffffffffffffffffffffffffffffffffffff1614610be8576040517f08c379a0000000000000000000000000000000000000000000000000000000008152600401610bdf9061186d565b60405180910390fd5b610bf982610bf4610558565b61133b565b9050919050565b6000600160008473ffffffffffffffffffffffffffffffffffffffff1673ffffffffffffffffffffffffffffffffffffffff16815260200190815260200160002060008373ffffffffffffffffffffffffffffffffffffffff1673ffffffffffffffffffffffffffffffffffffffff16815260200190815260200160002054905092915050565b610c8f610d7f565b73ffffffffffffffffffffffffffffffffffffffff16610cad610888565b73ffffffffffffffffffffffffffffffffffffffff1614610d03576040517f08c379a0000000000000000000000000000000000000000000000000000000008152600401610cfa9061186d565b60405180910390fd5b600073ffffffffffffffffffffffffffffffffffffffff168173ffffffffffffffffffffffffffffffffffffffff161415610d73576040517f08c379a0000000000000000000000000000000000000000000000000000000008152600401610d6a906117ad565b60405180910390fd5b610d7c8161125f565b50565b600033905090565b600073ffffffffffffffffffffffffffffffffffffffff168373ffffffffffffffffffffffffffffffffffffffff161415610df7576040517f08c379a0000000000000000000000000000000000000000000000000000000008152600401610dee906118cd565b60405180910390fd5b600073ffffffffffffffffffffffffffffffffffffffff168273ffffffffffffffffffffffffffffffffffffffff161415610e67576040517f08c379a0000000000000000000000000000000000000000000000000000000008152600401610e5e906117cd565b60405180910390fd5b80600160008573ffffffffffffffffffffffffffffffffffffffff1673ffffffffffffffffffffffffffffffffffffffff16815260200190815260200160002060008473ffffffffffffffffffffffffffffffffffffffff1673ffffffffffffffffffffffffffffffffffffffff168152602001908152602001600020819055508173ffffffffffffffffffffffffffffffffffffffff168373ffffffffffffffffffffffffffffffffffffffff167f8c5be1e5ebec7d5bd14f71427d1e84f3dd0314c0f7b2291e5b200ac8c7c3b92583604051610f45919061194d565b60405180910390a3505050565b6000610f5e8484610c00565b90507fffffffffffffffffffffffffffffffffffffffffffffffffffffffffffffffff8114610fd85781811015610fca576040517f08c379a0000000000000000000000000000000000000000000000000000000008152600401610fc19061180d565b60405180910390fd5b610fd78484848403610d87565b5b50505050565b600073ffffffffffffffffffffffffffffffffffffffff168373ffffffffffffffffffffffffffffffffffffffff16141561104e576040517f08c379a00000000000000000000000000000000000000000000000000000000081526004016110459061188d565b60405180910390fd5b600073ffffffffffffffffffffffffffffffffffffffff168273ffffffffffffffffffffffffffffffffffffffff1614156110be576040517f08c379a00000000000000000000000000000000000000000000000000000000081526004016110b59061178d565b60405180910390fd5b6110c9838383611351565b60008060008573ffffffffffffffffffffffffffffffffffffffff1673ffffffffffffffffffffffffffffffffffffffff1681526020019081526020016000205490508181101561114f576040517f08c379a00000000000000000000000000000000000000000000000000000000081526004016111469061182d565b60405180910390fd5b8181036000808673ffffffffffffffffffffffffffffffffffffffff1673ffffffffffffffffffffffffffffffffffffffff16815260200190815260200160002081905550816000808573ffffffffffffffffffffffffffffffffffffffff1673ffffffffffffffffffffffffffffffffffffffff16815260200190815260200160002060008282546111e291906119aa565b925050819055508273ffffffffffffffffffffffffffffffffffffffff168473ffffffffffffffffffffffffffffffffffffffff167fddf252ad1be2c89b69c2b068fc378daa952ba7f163c4a11628f55a4df523b3ef84604051611246919061194d565b60405180910390a3611259848484611356565b50505050565b6000600560009054906101000a900473ffffffffffffffffffffffffffffffffffffffff16905081600560006101000a81548173ffffffffffffffffffffffffffffffffffffffff021916908373ffffffffffffffffffffffffffffffffffffffff1602179055508173ffffffffffffffffffffffffffffffffffffffff168173ffffffffffffffffffffffffffffffffffffffff167f8be0079c531659141344cd1fd0a4f28419497f9722a3daafe3b4186f6b6457e060405160405180910390a35050565b600081836113339190611a00565b905092915050565b6000818361134991906119aa565b905092915050565b505050565b505050565b60008135905061136a81611f40565b92915050565b60008135905061137f81611f57565b92915050565b60006020828403121561139757600080fd5b60006113a58482850161135b565b91505092915050565b600080604083850312156113c157600080fd5b60006113cf8582860161135b565b92505060206113e08582860161135b565b9150509250929050565b6000806000606084860312156113ff57600080fd5b600061140d8682870161135b565b935050602061141e8682870161135b565b925050604061142f86828701611370565b9150509250925092565b6000806040838503121561144c57600080fd5b600061145a8582860161135b565b925050602061146b85828601611370565b9150509250929050565b60006020828403121561148757600080fd5b600061149584828501611370565b91505092915050565b6114a781611a5a565b82525050565b6114b681611a6c565b82525050565b60006114c782611983565b6114d18185611999565b93506114e1818560208601611aaf565b6114ea81611b72565b840191505092915050565b6000611502602383611999565b915061150d82611b83565b604082019050919050565b6000611525602683611999565b915061153082611bd2565b604082019050919050565b6000611548602283611999565b915061155382611c21565b604082019050919050565b600061156b601b83611999565b915061157682611c70565b602082019050919050565b600061158e601d83611999565b915061159982611c99565b602082019050919050565b60006115b1602683611999565b91506115bc82611cc2565b604082019050919050565b60006115d4603483611999565b91506115df82611d11565b604082019050919050565b60006115f7602083611999565b915061160282611d60565b602082019050919050565b600061161a602583611999565b915061162582611d89565b604082019050919050565b600061163d602d83611999565b915061164882611dd8565b604082019050919050565b600061166060008361198e565b915061166b82611e27565b600082019050919050565b6000611683602483611999565b915061168e82611e2a565b604082019050919050565b60006116a6602183611999565b91506116b182611e79565b604082019050919050565b60006116c9602083611999565b91506116d482611ec8565b602082019050919050565b60006116ec602583611999565b91506116f782611ef1565b604082019050919050565b61170b81611a98565b82525050565b61171a81611aa2565b82525050565b600061172b82611653565b9150819050919050565b600060208201905061174a600083018461149e565b92915050565b600060208201905061176560008301846114ad565b92915050565b6000602082019050818103600083015261178581846114bc565b905092915050565b600060208201905081810360008301526117a6816114f5565b9050919050565b600060208201905081810360008301526117c681611518565b9050919050565b600060208201905081810360008301526117e68161153b565b9050919050565b600060208201905081810360008301526118068161155e565b9050919050565b6000602082019050818103600083015261182681611581565b9050919050565b60006020820190508181036000830152611846816115a4565b9050919050565b60006020820190508181036000830152611866816115c7565b9050919050565b60006020820190508181036000830152611886816115ea565b9050919050565b600060208201905081810360008301526118a68161160d565b9050919050565b600060208201905081810360008301526118c681611630565b9050919050565b600060208201905081810360008301526118e681611676565b9050919050565b6000602082019050818103600083015261190681611699565b9050919050565b60006020820190508181036000830152611926816116bc565b9050919050565b60006020820190508181036000830152611946816116df565b9050919050565b60006020820190506119626000830184611702565b92915050565b600060208201905061197d6000830184611711565b92915050565b600081519050919050565b600081905092915050565b600082825260208201905092915050565b60006119b582611a98565b91506119c083611a98565b9250827fffffffffffffffffffffffffffffffffffffffffffffffffffffffffffffffff038211156119f5576119f4611b14565b5b828201905092915050565b6000611a0b82611a98565b9150611a1683611a98565b9250817fffffffffffffffffffffffffffffffffffffffffffffffffffffffffffffffff0483118215151615611a4f57611a4e611b14565b5b828202905092915050565b6000611a6582611a78565b9050919050565b60008115159050919050565b600073ffffffffffffffffffffffffffffffffffffffff82169050919050565b6000819050919050565b600060ff82169050919050565b60005b83811015611acd578082015181840152602081019050611ab2565b83811115611adc576000848401525b50505050565b60006002820490506001821680611afa57607f821691505b60208210811415611b0e57611b0d611b43565b5b50919050565b7f4e487b7100000000000000000000000000000000000000000000000000000000600052601160045260246000fd5b7f4e487b7100000000000000000000000000000000000000000000000000000000600052602260045260246000fd5b6000601f19601f8301169050919050565b7f45524332303a207472616e7366657220746f20746865207a65726f206164647260008201527f6573730000000000000000000000000000000000000000000000000000000000602082015250565b7f4f776e61626c653a206e6577206f776e657220697320746865207a65726f206160008201527f6464726573730000000000000000000000000000000000000000000000000000602082015250565b7f45524332303a20617070726f766520746f20746865207a65726f20616464726560008201527f7373000000000000000000000000000000000000000000000000000000000000602082015250565b7f53656e642045544820746f2062757920736f6d6520746f6b656e730000000000600082015250565b7f45524332303a20696e73756666696369656e7420616c6c6f77616e6365000000600082015250565b7f45524332303a207472616e7366657220616d6f756e742065786365656473206260008201527f616c616e63650000000000000000000000000000000000000000000000000000602082015250565b7f56656e646f7220636f6e747261637420686173206e6f7420656e6f756768207460008201527f6f6b656e7320696e206974732062616c616e6365000000000000000000000000602082015250565b7f4f776e61626c653a2063616c6c6572206973206e6f7420746865206f776e6572600082015250565b7f45524332303a207472616e736665722066726f6d20746865207a65726f20616460008201527f6472657373000000000000000000000000000000000000000000000000000000602082015250565b7f4661696c656420746f2073656e6420757365722062616c616e6365206261636b60008201527f20746f20746865206f776e657200000000000000000000000000000000000000602082015250565b50565b7f45524332303a20617070726f76652066726f6d20746865207a65726f2061646460008201527f7265737300000000000000000000000000000000000000000000000000000000602082015250565b7f4f776e657220686173206e6f742062616c616e636520746f207769746864726160008201527f7700000000000000000000000000000000000000000000000000000000000000602082015250565b7f4661696c656420746f207472616e7366657220746f6b656e20746f2075736572600082015250565b7f45524332303a2064656372656173656420616c6c6f77616e63652062656c6f7760008201527f207a65726f000000000000000000000000000000000000000000000000000000602082015250565b611f4981611a5a565b8114611f5457600080fd5b50565b611f6081611a98565b8114611f6b57600080fd5b5056fea2646970667358221220d85772ac3b5129bf1cd1b4f0f8146ec014c9bdbce60d974194339c8f741be46b64736f6c63430008010033",
  "linkReferences": {},
  "deployedLinkReferences": {}
}